:020000040800F2
:100000006804002001010008FB0E0008550E0008DE
:10001000F90E0008910100087111000800000000AD
:10002000000000000000000000000000010F0008B8
:100030009301000800000000FD0E0008030F0008F7
:100040001B0100081B0100081B0100081B01000820
:100050001B010008FF0E00081B0100081B0100081F
:100060001B0100081B0100081B0100081B01000800
:100070001B0100081B0100081B0100081B010008F0
:100080001B0100081B0100081B0100081B010008E0
:100090001B0100081B0100081B0100081B010008D0
:1000A0001B0100081B0100081B0100081B010008C0
:1000B0001B0100081B0100081B0100081B010008B0
:1000C0001B0100081B0100081B0100081B010008A0
:1000D0001B010008651100081B0100081B01000836
:1000E0001B0100081B0100081B010008DFF80CD0F1
:1000F00000F03CF800480047B111000868040020F7
:100100000648804706480047FEE7FEE7FEE7FEE7B1
:10011000FEE7FEE7FEE7FEE7FEE7FEE7490F000821
:10012000ED00000840EA01039B0703D009E008C97D
:10013000121F08C0042AFAD203E011F8013B00F8AC
:10014000013B521EF9D27047D2B201E000F8012BF8
:10015000491EFBD270470022F6E710B513460A4647
:1001600004461946FFF7F0FF204610BD064C074D28
:1001700006E0E06840F0010394E807009847103477
:10018000AC42F6D3FFF7B6FF2C1200084C12000861
:10019000FEE770477047000010B590F8211000246A
:1001A000022903D00421816301243DE001680A682B
:1001B00022F00E020A6001680A6822F001020A6059
:1001C0001A4A0168914201D1012121E0174A1432F3
:1001D000914201D110211BE0144A2832914201D1F1
:1001E000891515E0114A3C32914201D189140FE082
:1001F0000E4A5032914202D14FF4803108E00B4A4E
:100200006432914202D14FF4801101E04FF08071CD
:10021000064A083A5160012180F82110002180F837
:100220002010416B01B18847204610BD08000240F4
:1002300070B5044600F00CF90546601C02D0044875
:100240000078044400F004F9401BA042FAD370BDCA
:10025000180000202DE9F84FDFF8B891002409F1CB
:10026000040A0AF1040B23460F270BF1040EC9E020
:100270000125A5402A40AA427DD1674ED1F804C08D
:10028000ACEB0608B44532D014DCBCF1030F3AD015
:1002900009DCBCF1000F2AD0BCF1010F1CD0BCF16D
:1002A000020F31D11DE0BCF1110F17D0BCF1120FBC
:1002B0002AD119E0B8F5881F19D006DCB8F5803FBF
:1002C00015D0B8F5801F1FD111E0B8F5001F0ED072
:1002D000B8F5041F18D10AE0CB6815E0CB681B1DE8
:1002E00012E0CB6808330FE0CB680C330CE08B686E
:1002F0002BB1012B4FF0080303D0456104E0042328
:1003000002E0056100E00023FF2A01D8064601E073
:1003100000F104064FEA840501D9A5F12005D6F8BD
:10032000008007FA05FC28EA0C0803FA05F548EAFC
:100330000508C6F800804D68ED0062D5374DAE69FE
:1003400046F00106AE61AD6924F0030605F0010533
:100350000095334D06EB050CDCF80850A607360F68
:1003600007FA06F825EA0805DFF8B880404503D10A
:100370004FF0000817E044E0DFF8AC80404502D1C0
:100380004FF001080FE0DFF8A480404502D14FF0A4
:10039000020808E0DFF89880404502D14FF00308DA
:1003A00001E04FF0040808FA06F848EA0508CCF81E
:1003B00008804D68D9F80060ED034D4601D516431D
:1003C00000E096432E604D68DAF80060AD035546B4
:1003D00001D5164300E096432E604D68DBF80060BF
:1003E000ED025D4601D5164300E096432E604D6850
:1003F000DEF80060AD02754601D5164300E0964375
:100400002E60641C0D682A46E5407FF431AFBDE8DC
:10041000F88F00000004014000001110001002409D
:100420000000014000080140000C014000100140A4
:1004300000140140C26821EA02030A4043EA024173
:10044000016170470AB1016170470904FBE70000D0
:100450000148806870470000180000200248816849
:10046000027811448160704718000020074810B5D9
:10047000016841F010010160032000F07DF80020C8
:1004800000F006F800F024F8002010BD0020024023
:1004900070B50D4D04464FF47A712878B1FBF0F039
:1004A0000A490968B1FBF0F000F0F4FA48B9102CE1
:1004B00007D200222146501E00F03EF800206C605A
:1004C00070BD012070BD0000180000202400002035
:1004D000104808B5816941F001018161816901F02D
:1004E00001010091C16941F08051C161C0690022E0
:1004F00000F0805000901146052000F01DF8052006
:1005000000F00CF80448416821F0E06141F000710E
:10051000416008BD0010024000000140002809DBD6
:1005200000F01F02012191404009800000F1E0200D
:10053000C0F8001170470000F0B40E4B1B680C4669
:10054000C3F30223C3F10705042D00D90425191DA7
:10055000072901D2002300E0DB1E012606FA05F17F
:10056000491E214099409E40761E16403143F0BC02
:1005700000F0FFBD0CED00E0064900F0070208683E
:100580004FF6FF03184040EA0220034A1043086078
:10059000704700000CED00E00000FA052DE9F0477F
:1005A0000F46050061D0434E306800F00700B842A6
:1005B00009D2306820F0070038433060306800F01E
:1005C0000700B84251D128683B4C810712D540073B
:1005D00003D5606840F4E06060602878000703D5C8
:1005E000606840F4605060606068A96820F0F000C6
:1005F000084360602878C00728D06868012810D0B8
:100600002168022810D0890700292EDA616821F0BC
:10061000030101436160FFF71BFF804641F2883907
:100620000DE021688903EFE78901EDE7FFF710FF8F
:10063000A0EB0801494502D90320BDE8F0876068B6
:10064000696800F00C00B0EB810FEFD1306800F06A
:100650000700B8420BD9306820F0070038433060FB
:10066000306800F00700B84201D00120E5E72878A3
:10067000400705D56068E96820F4E06008436060E1
:100680002878000706D56068296920F4605040EAA0
:10069000C100606000F038F86168084AC1F30311D6
:1006A000515CC8400649086006480068FFF7F0FE44
:1006B0000020C2E70020024000100240141200088F
:1006C000240000201C0000200448054900684968F7
:1006D000044AC1F30221515CC84070472400002045
:1006E00000100240241200080448054900684968C7
:1006F000044AC1F3C221515CC84070472400002065
:10070000001002402412000812A185B00FC98DE824
:100710000F0014A0144A006804905168134801F0B7
:100720000C03042B10D0082B0ED1C1F38343C90353
:100730001DF803000AD5516804AAC1F34041515C79
:100740000A4A5043B0FBF1F005B0704708494843EE
:10075000FAE7000002030405060708090A0B0C0D5E
:100760000E0F1010010200000010024000127A006B
:1007700000093D002DE9F84F040070D02078C04DED
:10078000C00749D06868C0F38100012807D06868B5
:10079000C0F38100022809D16868C00306D5286823
:1007A000800339D560680028E7D035E06068B0F58F
:1007B000803F0BD010B1B0F5A02F11D0286820F4E5
:1007C00080302860286820F4802002E0286840F407
:1007D00080302860606890B1FFF73AFE06460AE074
:1007E000286840F480202860F0E700BFFFF730FE63
:1007F000801B642873D828688003F7D50CE0FFF7C6
:1008000027FE064605E000BFFFF722FE801B642896
:10081000F0D828688003F7D420789A4E80074FF0EC
:1008200001094FF0000839D5686810F00C0F07D0A7
:100830006868C0F38100022809D16868C00306D443
:100840002868800714D52069012808D110E02069A4
:10085000B0B1C6F80090FFF7FBFD074605E00AE1DE
:10086000FFF7F6FDC01B0228C4D828688007F7D51B
:100870002868616920F0F80040EAC10028600DE0B6
:10088000C6F80080FFF7E4FD074604E0FFF7E0FD4F
:10089000C01B022823D828688007F7D420780007D7
:1008A0002CD57948A169D9B1C0F80090FFF7D0FDE7
:1008B000074604E0FFF7CCFDC01B02280FD8686A8A
:1008C0008007F7D571484FF4FA510068B0FBF1F09A
:1008D000009000BF0098411E0091FAD20EE080E027
:1008E000C0F80080FFF7B4FD074604E0FFF7B0FD55
:1008F000C01B022875D8686A8007F7D420784007A3
:1009000060D5E8690027C00008D4E86940F080504D
:10091000E861E869012700F0805000905C480168B8
:10092000C90513D40168834641F480710160FFF763
:100930008FFD824606E000BFFFF78AFDA0EB0A00AC
:1009400064284ED8DBF80000C005F5D5E068012822
:100950000AD008B1052813D0286A20F001002862C7
:10096000286A20F0040002E0286A40F001002862B2
:10097000E06841F2883B98B1FFF76AFD82460BE0E0
:10098000286A40F004002862EEE700BFFFF760FD30
:10099000A0EB0A0159455AD8286A8007F6D50CE021
:1009A000FFF756FD824605E0FFF752FDA0EB0A0176
:1009B00059454CD8286A8007F6D41FB1E86920F061
:1009C0008050E861E06988B36968C1F38101022958
:1009D00044D00228C6F8608004D0FFF739FD0446F1
:1009E00038E034E0FFF734FD074604E0FFF730FD60
:1009F000C01B02282BD828688001F7D4206AB0F5E4
:100A0000803F05D16868A16820F400300843686021
:100A1000D4E908010843696821F474110843686047
:100A2000C6F86090FFF714FD044606E025E000BF1D
:100A3000FFF70EFD001B022809D828688001F7D5B2
:100A40001BE000BFFFF704FD001B022802D90320B2
:100A5000BDE8F88F28688001F4D40EE00128F7D0B3
:100A60006868226A00F48031914204D1616A00F41E
:100A70007010884201D00120EAE70020E8E700007A
:100A80000010024000004242800442422400002044
:100A90000070004010B5401EB0F1807F01D30120EE
:100AA00010BD4FF0E02460610F21601700F061FB82
:100AB0000020A06107202061002010BD70470000C9
:100AC00070B5026804461068D168536910F00F0FC2
:100AD00052D003F0010501F490762E435FD0C20797
:100AE00005D0CA0503D5E26B42F00102E26342077A
:100AF00005D5DA0703D0E26B42F00202E263820717
:100B000005D5DA0703D0E26B42F00402E263020784
:100B100007D501F020022A4303D0E26B42F008021D
:100B2000E263E26B002A33D0800604D5880602D542
:100B3000204600F043FA20684069E16BC0F3801062
:100B4000090700D428B3204600F02AFA206841693A
:100B500049061AD5416921F040014161606BA0B19D
:100B60002D494163606BFFF717FB002810D0606BC5
:100B7000416BBDE870400847830610D58B060ED543
:100B80002046BDE8704000F019BA2046FFF796FFF6
:100B900070BD2046FFF792FF0020E06370BD0306A2
:100BA0002BD50B0629D594F839002128F6D1A06859
:100BB000B0F5805F01D12069B0B1206A411C21628B
:100BC000216800784860E08C401E0004000CE0843E
:100BD000E4D12068C16821F08001C1602068C1684B
:100BE00041F04001C16070BD206A0088C0F3080078
:100BF0005060206A801C2062E5E74006F3D5480675
:100C0000F1D5D168204621F04001D160202184F83F
:100C1000391000F01EF970BD910F000870B5040086
:100C200004D094F83900002510B106E0012070BD11
:100C300084F83850204600F023F8242084F8390046
:100C40002068C16821F40051C160204600F0FCF921
:100C50002068016921F4904101612068416921F017
:100C60002A0141612068C16841F40051C160E56317
:100C7000202084F8390084F83A00002070BD00007C
:100C800030B585B000240094019402940394006868
:100C9000184988422CD11848816941F4804181610A
:100CA000816901F480410491816941F0040181610D
:100CB0008069124D00F0040004904FF40070009021
:100CC000022001900320039069462846FFF7C2FAEC
:100CD0002815CDE90004694628460294FFF7BAFAC0
:100CE000002211462520FFF727FC2520FFF716FCE0
:100CF00005B030BD0038014000100240000801403E
:100D000090F83A30202B22D1F9B1F2B190F8383076
:100D1000012B1CD081628285C2850021C163222201
:100D200080F83A2080F838100168CA6842F480726E
:100D3000CA6001684A6942F001024A610068C168FC
:100D400041F02001C160002070470120704702205F
:100D50007047000010B50F4900680968884217D134
:100D600001220D490B48FFF7CBFF0B4800786428A0
:100D70000ED14FF400510948FFF75CFB06491422DD
:100D8000BDE810404FF47A73491C024800F008B8DF
:100D900010BD0000280000200000002000100140CD
:100DA0002DE9F843044690F839001F4616460D46D3
:100DB00020284CD1C5B1BEB194F83800012846D0E6
:100DC000012084F838004FF00008C4F83C8021204E
:100DD00084F83900FFF73CFBA6848146E684A068CE
:100DE000B0F5805F03D004E00120BDE8F8832069FE
:100DF00028B12E465FF0000584F838800EE000260A
:100E0000FAE78021204600F07BF9A0B9AEB116F8D0
:100E1000010B21684860E08C401EE084E08C4B466A
:100E20004FF0000200970028EBD14FF04001204620
:100E300000F066F930B10320D7E735F8020BC0F3B4
:100E40000800E6E7202084F839000020CDE70220E2
:100E5000CBE77047FEE7000070B586B00024144869
:100E60000094019402940394816941F0100181611E
:100E7000816901F010010491816941F004018161EF
:100E800080690C4E00F004004FF4005504900022DD
:100E900029463046FFF7D6FA01200095CDE9010436
:100EA0000220039069463046FFF7D4F906B070BDC2
:100EB00000100240001001400E4810B50C490160BE
:100EC0004FF4165141604FF48051816000214FF47E
:100ED000C062C0E903120C22C0E90521C161FFF71D
:100EE0009DFE002803D0BDE81040FFF753B910BDA8
:100EF0000038014028000020FEE770477047704727
:100F00007047FFF7ABBA10B590B028216846FFF7DD
:100F100022F914210AA8FFF71EF9022000900120EF
:100F2000049010200024059007946846FFF722FCE7
:100F30000F20CDE90A040C940D9400210AA80E9408
:100F4000FFF72CFB10B010BD0D48016841F0010106
:100F5000016041680B4A1140416001680A4A114032
:100F60000160016821F480210160416821F4FE01E3
:100F700041604FF41F0181600449C003086070475D
:100F8000001002400000FFF8FFFFF6FE08ED00E051
:100F900010B5406A0021C185C184FFF78FFD10BDE7
:100FA0000168CA6822F49072CA6001684A6922F036
:100FB00001024A61202180F83A10704710B590F87C
:100FC0003A10222901D0022010BD82684FF48053CC
:100FD0009A4201D1016921B1816A9A421BD04AB17A
:100FE0000AE00268816A5268C2F308020A80816AD4
:100FF000891C08E0026972B10268526802F07F023F
:101000000A70816A491C8162C18D491E0904090C5C
:10101000C18503D016E002685268F1E70168CA682A
:1010200022F02002CA600168CA6822F48072CA6095
:1010300001684A6922F001024A61202180F83A10D1
:10104000FFF788FE002010BD70B5044600680169F6
:10105000E26821F44051114301612169A06808430D
:10106000616908432168CA6841F20C639A430243EC
:10107000CA6020684169A26921F44071114341614D
:101080001E492068884202D1FFF72EFB01E0FFF7DE
:101090001BFB00EBC00101EB0012606864218000C3
:1010A000B2FBF0F3B3FBF1F36FF018067343B2FB3E
:1010B000F0F5B2FBF0F605EB8305322303EB0515E3
:1010C000B5FBF1F5B6FBF1F605F0F00505EB0615FD
:1010D000B2FBF0F6B2FBF0F0B0FBF1F06FF01802EB
:1010E000504306EB800003EB0010B0FBF1F02168E9
:1010F00000F00F002844886070BD000000380140F7
:101100002DE9F041984617460E460446069D1DE01F
:10111000681C1BD02DB1FFF79BF9A0EB0800A8427B
:1011200014D92068C16821F4D071C1602068416978
:1011300021F001014161202084F8390084F83A004F
:10114000002084F838000320BDE8F08120680068A2
:1011500036EA000004D00020B842D9D00020F3E7DE
:101160000120F9E70148FFF7ABBC00002800002090
:10117000FEE70907090E002804DB00F1E02080F8F3
:101180000014704700F00F0000F1E02080F8141DFB
:10119000704702E008C8121F08C1002AFAD1704740
:1011A0007047002001E001C1121F002AFBD17047E7
:1011B00088B0FFF75BF9FFF7A6FEFFF74DFEFFF7DC
:1011C0007BFE1C220AA16846FEF7ACFF01220F49F4
:1011D0000F48FFF795FD4FF47A74234619226946AC
:1011E0000B48FFF7DDFD2046FFF722F8F5E700008A
:1011F00068656C6C6F20746865206675636B696EDA
:101200006720776F726C640A000000000000002005
:10121000280000200000000000000000010203047C
:101220000607080900000000010203044C12000830
:10123000000000202800000092110008741200082D
:101240002800002040040000A211000800746F670D
:10125000676C6520746865206C6564204331330ACF
:10126000000000000100000010000000000000006D
:041270000024F40062
:04000005080000ED02
:00000001FF
